:100000000C942A000C943F000C943F000C943F0089
:100010000C943F000C943F000C943F000C943F0064
:100020000C943F000C943F000C943F000C943F0054
:100030000C943F000C943F000C943F000C943F0044
:100040000C943F000C943F000C943F000C943F0034
:100050000C943F0011241FBECFE5D8E0DEBFCDBF1A
:1000600010E0A0E6B0E0E8E0FAE102C005900D92F1
:10007000A836B107D9F70E94AB0A0C94020D0C9474
:100080000000EF92FF920F931F937B018C0120E001
:1000900030E040E05FE40E94410388238CF0C80117
:1000A000B70120E030E040E05FE40E94B9010E9427
:1000B000A1039B01AC01205030404040504806C095
:1000C000C801B7010E94A1039B01AC01B901CA019B
:1000D0001F910F91FF90EF900895A0E0B0E0E3E74B
:1000E000F0E00C94CB0CDC012B01FA019C919230D6
:1000F00008F439C1EB018881823008F433C19430AF
:1001000069F4843009F02FC111969C91119789816F
:10011000981709F428C1A0E6B0E025C1843009F49D
:1001200021C18230A9F4923009F01DC19A01AD01BC
:1001300088E0EA010990AE01E90109929E0181502F
:10014000C1F7E201898111969C918923818308C1BD
:10015000923009F407C112962D903C901397EB0151
:100160008A819B811496AD90BD90CD90DC901797BD
:10017000EC80FD800E811F819101281B390BB90194
:1001800037FF04C066277727621B730B6032710547
:100190000CF061C0121613066CF537014801062EEB
:1001A00004C096948794779467940A94D2F721E0D8
:1001B00030E040E050E004C0220F331F441F551FC1
:1001C0006A95D2F721503040404050402E213F21C7
:1001D00040235123211531054105510521F021E02E
:1001E00030E040E050E079018A01E628F72808294C
:1001F00019293CC0232BD1F1260E371E35014601AB
:10020000062E04C096948794779467940A94D2F744
:1002100021E030E040E050E004C0220F331F441FD3
:10022000551F6A95D2F721503040404050402A2156
:100230003B214C215D21211531054105510521F05E
:1002400021E030E040E050E059016A01A628B728DB
:10025000C828D9280BC0821593052CF01C01AA24AC
:10026000BB24650103C0EE24FF24870111969C91F5
:10027000D20111968C91981709F445C0992339F051
:10028000A80197012A193B094C095D0906C0A6017E
:1002900095012E193F09400B510B57FD08C01182E3
:1002A0003382228224833583468357831DC081E0B5
:1002B00081833382228288279927DC01821B930B5A
:1002C000A40BB50B84839583A683B7830DC0220F3F
:1002D000331F441F551F24833583468357838281F0
:1002E000938101979383828324813581468157814D
:1002F000DA01C9010197A109B1098F5F9F4FAF4F83
:10030000BF4328F30BC0918333822282EA0CFB1C8B
:100310000C1D1D1DE482F5820683178383E0808314
:10032000248135814681578157FF1AC0C901AA2708
:1003300097FDA095BA2F81709070A070B0705695FF
:10034000479537952795822B932BA42BB52B848328
:100350009583A683B7838281938101969383828359
:10036000DF0101C0D201CD01CDB7DEB7E2E10C94CF
:10037000E70CA0E2B0E0EFEBF1E00C94D70C69835E
:100380007A838B839C832D833E834F835887E9E058
:10039000EE2EF12CEC0EFD1ECE010196B7010E944F
:1003A000CA048E010F5E1F4FCE010596B8010E9450
:1003B000CA048A8991E089278A8BC701B801AE01F6
:1003C000475E5F4F0E946D000E94F503A096E6E035
:1003D0000C94F30CA0E2B0E0E0EFF1E00C94D70C49
:1003E00069837A838B839C832D833E834F835887D5
:1003F000F9E0EF2EF12CEC0EFD1ECE010196B701B7
:100400000E94CA048E010F5E1F4FCE010596B801EF
:100410000E94CA04C701B801AE01475E5F4F0E9447
:100420006D000E94F503A096E6E00C94F30CA0E2A8
:10043000B0E0EDE1F2E00C94CB0C69837A838B831E
:100440009C832D833E834F835887CE010196BE0146
:10045000675F7F4F0E94CA04CE010596BE016F5EA2
:100460007F4F0E94CA049985923088F08989823032
:10047000C8F0943019F4823051F404C0843029F467
:10048000923081F480E690E0C6C0923049F420E0DA
:100490009A858A89981321E02A87CE010996BBC0E4
:1004A000823049F420E09A858A89981321E02A8BCA
:1004B000CE014196B0C02D843E844F8458886D880B
:1004C0007E888F88988CEE24FF248701AA24BB2481
:1004D000650140E050E060E070E0E0E0F0E0C10184
:1004E00081709070892BE9F0E60CF71C081D191D2E
:1004F0009A01AB012A0D3B1D4C1D5D1D80E090E073
:10050000A0E0B0E0E614F7040805190520F481E046
:1005100090E0A0E0B0E0BA01A901480F591F6A1F9E
:100520007B1FAA0CBB1CCC1CDD1C97FE08C081E005
:1005300090E0A0E0B0E0A82AB92ACA2ADB2A3196C6
:10054000E032F10549F0660C771C881C991C569422
:10055000479437942794C3CFFA85EA892B893C893D
:100560008B859C85280F391F2E5F3F4F17C0CA010E
:1005700081709070892B61F016950795F794E79438
:1005800080E090E0A0E0B0E8E82AF92A0A2B1B2BD3
:1005900076956795579547952F5F3F4F77FDE7CF46
:1005A0000CC0440F551F661F771F17FD4160EE0CEE
:1005B000FF1C001F111F21503040403090E05907B0
:1005C00090E0690790E4790760F32B8F3C8FDB01A3
:1005D000CA018F779070A070B07080349105A1052A
:1005E000B10561F447FD0AC0E114F10401051105EC
:1005F00029F0405C5F4F6F4F7F4F40781A8EFE1797
:1006000011F081E08A8F4D8F5E8F6F8F78A383E02A
:10061000898FCE0149960E94F503A096E2E10C94E1
:10062000E70CA8E1B0E0E7E1F3E00C94D70C6983B4
:100630007A838B839C832D833E834F83588789E005
:10064000E82EF12CEC0EFD1ECE010196B7010E94A2
:10065000CA048E010F5E1F4FCE010596B8010E949D
:10066000CA048985823040F08989823028F0C70128
:10067000B8010E94420501C08FEF6896E6E00C9435
:10068000F30CA8E1B0E0E7E4F3E00C94D70C698345
:100690007A838B839C832D833E834F83588789E0A5
:1006A000E82EF12CEC0EFD1ECE010196B7010E9442
:1006B000CA048E010F5E1F4FCE010596B8010E943D
:1006C000CA048985823040F08989823028F0C701C8
:1006D000B8010E94420501C08FEF6896E6E00C94D5
:1006E000F30CA8E1B0E0E7E7F3E00C94D70C6983E2
:1006F0007A838B839C832D833E834F83588789E045
:10070000E82EF12CEC0EFD1ECE010196B7010E94E1
:10071000CA048E010F5E1F4FCE010596B8010E94DC
:10072000CA048985823040F08989823028F0C70167
:10073000B8010E94420501C081E06896E6E00C9491
:10074000F30CACE0B0E0E7EAF3E00C94DB0C698377
:100750007A838B839C83CE010196BE016B5F7F4FB2
:100760000E94CA048D81823061F1823050F1843060
:1007700021F48E81882351F12EC02F81388537FDD9
:1007800020C06E812F3131051CF06623F9F023C0A3
:100790008EE190E0821B930B29853A854B855C8521
:1007A00004C056954795379527958A95D2F76623C5
:1007B000B1F050954095309521953F4F4F4F5F4F89
:1007C0000EC020E030E040E050E009C02FEF3FEFE6
:1007D0004FEF5FE704C020E030E040E050E8B901AF
:1007E000CA012C96E2E00C94F70CDF92EF92FF9294
:1007F0000F931F93FC01E480F58006811781D1805F
:100800008081823048F480E090E0A0E1B0E0E82A06
:10081000F92A0A2B1B2BA5C0843009F49FC0823013
:1008200021F4EE24FF24870105C0E114F104010541
:10083000110519F4E0E0F0E096C0628173819FEF4A
:10084000623879070CF05BC022E83FEF261B370BBC
:100850002A3131052CF020E030E040E050E02AC0A1
:10086000B801A701022E04C0769567955795479564
:100870000A94D2F781E090E0A0E0B0E004C0880FD5
:10088000991FAA1FBB1F2A95D2F70197A109B10989
:100890008E219F21A023B1230097A105B10521F04E
:1008A00081E090E0A0E0B0E09A01AB01282B392B69
:1008B0004A2B5B2BDA01C9018F779070A070B07062
:1008C00080349105A105B10539F427FF09C0205CEA
:1008D0003F4F4F4F5F4F04C0215C3F4F4F4F5F4F23
:1008E000E0E0F0E02030A0E03A07A0E04A07A0E412
:1008F0005A0710F0E1E0F0E079018A0127C0603882
:10090000710564F5FB01E158FF4FD801C7018F77EE
:100910009070A070B07080349105A105B10539F4D4
:10092000E7FE0DC080E490E0A0E0B0E004C08FE3FB
:1009300090E0A0E0B0E0E80EF91E0A1F1B1F17FFB1
:1009400005C016950795F794E794319687E01695BC
:100950000795F794E7948A95D1F705C0EE24FF2414
:100960008701EFEFF0E06E2F679566276795902F70
:100970009F77D794DD24D7948E2F8695492F462BC9
:10098000582F5D29B701CA011F910F91FF90EF9079
:10099000DF900895FC01DB01408151812281622FAB
:1009A0006F7770E0221F2227221F9381892F880FE3
:1009B000822B282F30E0991F9927991F11969C931D
:1009C000119721153105A9F54115510561057105ED
:1009D00011F482E037C082E89FEF13969C938E93C8
:1009E00012979A01AB0167E0220F331F441F551F76
:1009F0006A95D1F783E08C930DC0220F331F441FFB
:100A0000551F12968D919C911397019713969C9365
:100A10008E931297203080E0380780E0480780E40A
:100A2000580758F314962D933D934D935C93179765
:100A300008952F3F310579F4411551056105710580
:100A400019F484E08C93089564FF03C081E08C93D3
:100A500012C01C9210C02F57304013963C932E9317
:100A6000129783E08C9387E0440F551F661F771F12
:100A70008A95D1F7706414964D935D936D937C9332
:100A8000179708951F93DC01FB019C91923008F4A5
:100A900047C08081823008F443C0943051F41196ED
:100AA0001C91843099F58181682F70E0611B710978
:100AB0003FC0843021F0923031F48230B9F181812D
:100AC000882389F12DC011961C9111978230F1F085
:100AD00081811817D9F412962D913C911397828138
:100AE00093818217930794F028173907BCF0149666
:100AF0008D919D910D90BC91A02D248135814681D1
:100B00005781281739074A075B0718F4112341F06A
:100B10000AC082179307A407B50740F4112319F000
:100B200061E070E005C06FEF7FEF02C060E070E051
:100B3000CB011F910895DF93CF9300D000D0CDB7A4
:100B4000DEB789836A838981282F30E03C832B8339
:100B50008B819C8182309105D9F02B813C8123309F
:100B6000310534F48B819C818130910561F01EC088
:100B70002B813C812330310581F08B819C81843035
:100B8000910581F013C0EAE3F0E08A8180830EC012
:100B9000E7E3F0E08A81808309C0E4E3F0E08A8142
:100BA000808304C0E1E3F0E08A8180830F900F909E
:100BB0000F900F90CF91DF910895DF93CF9300D0E6
:100BC00000D0CDB7DEB789836A838981282F30E0D2
:100BD0003C832B838B819C8182309105D9F02B81C2
:100BE0003C812330310534F48B819C818130910527
:100BF00061F01EC02B813C812330310581F08B8157
:100C00009C818430910581F013C0EBE3F0E08A8190
:100C100080830EC0E8E3F0E08A81808309C0E5E3C9
:100C2000F0E08A81808304C0E2E3F0E08A8180837F
:100C30000F900F900F900F90CF91DF910895DF9359
:100C4000CF93CDB7DEB727970FB6F894DEBF0FBEB0
:100C5000CDBF89836A834B838981853008F0F0C0DA
:100C60008A81883008F0ECC08B81882309F075C038
:100C70008981282F30E03F832E838E819F818230AF
:100C8000910561F12E813F812330310534F48E814D
:100C90009F818130910569F0D3C02E813F8123303F
:100CA000310589F18E819F818430910509F440C01E
:100CB000C7C0AAE3B0E0EAE3F0E08081482F8A8170
:100CC000282F30E081E090E0022E02C0880F991FAB
:100CD0000A94E2F7809584238C93B2C0A7E3B0E036
:100CE000E7E3F0E08081482F8A81282F30E081E01F
:100CF00090E0022E02C0880F991F0A94E2F78095B7
:100D000084238C939DC0A4E3B0E0E4E3F0E0808111
:100D1000482F8A81282F30E081E090E0022E02C027
:100D2000880F991F0A94E2F7809584238C9388C0DA
:100D3000A1E3B0E0E1E3F0E08081482F8A81282F31
:100D400030E081E090E0022E02C0880F991F0A94E3
:100D5000E2F7809584238C9373C08B81813009F0F6
:100D60006FC08981282F30E03D832C838C819D8149
:100D70008230910551F12C813D812330310534F4CD
:100D80008C819D818130910561F05AC02C813D811B
:100D90002330310571F18C819D8184309105E9F119
:100DA0004FC0AAE3B0E0EAE3F0E08081482F8A81F7
:100DB000282F30E081E090E0022E02C0880F991FBA
:100DC0000A94E2F7842B8C933BC0A7E3B0E0E7E3FF
:100DD000F0E08081482F8A81282F30E081E090E088
:100DE000022E02C0880F991F0A94E2F7842B8C937D
:100DF00027C0A4E3B0E0E4E3F0E08081482F8A81DB
:100E0000282F30E081E090E0022E02C0880F991F69
:100E10000A94E2F7842B8C9313C0A1E3B0E0E1E3E2
:100E2000F0E08081482F8A81282F30E081E090E037
:100E3000022E02C0880F991F0A94E2F7842B8C932C
:100E400027960FB6F894DEBF0FBECDBFCF91DF91CE
:100E50000895DF93CF93CDB7DEB727970FB6F894F9
:100E6000DEBF0FBECDBF89836A834B838981853006
:100E700008F0F0C08A81883008F0ECC08B818823AC
:100E800009F075C08981282F30E03F832E838E8141
:100E90009F818230910561F12E813F8123303105A0
:100EA00034F48E819F818130910569F0D3C02E8109
:100EB0003F812330310589F18E819F8184309105F6
:100EC00009F440C0C7C0ABE3B0E0EBE3F0E08081E1
:100ED000482F8A81282F30E081E090E0022E02C066
:100EE000880F991F0A94E2F7809584238C93B2C0EF
:100EF000A8E3B0E0E8E3F0E08081482F8A81282F62
:100F000030E081E090E0022E02C0880F991F0A9421
:100F1000E2F7809584238C939DC0A5E3B0E0E5E3E0
:100F2000F0E08081482F8A81282F30E081E090E036
:100F3000022E02C0880F991F0A94E2F7809584233D
:100F40008C9388C0A2E3B0E0E2E3F0E08081482F18
:100F50008A81282F30E081E090E0022E02C0880FC5
:100F6000991F0A94E2F7809584238C9373C08B8138
:100F7000813009F06FC08981282F30E03D832C83B8
:100F80008C819D818230910551F12C813D812330EE
:100F9000310534F48C819D818130910561F05AC016
:100FA0002C813D812330310571F18C819D8184300C
:100FB0009105E9F14FC0ABE3B0E0EBE3F0E08081F5
:100FC000482F8A81282F30E081E090E0022E02C075
:100FD000880F991F0A94E2F7842B8C933BC0A8E3F7
:100FE000B0E0E8E3F0E08081482F8A81282F30E0EC
:100FF00081E090E0022E02C0880F991F0A94E2F768
:10100000842B8C9327C0A5E3B0E0E5E3F0E080817A
:10101000482F8A81282F30E081E090E0022E02C024
:10102000880F991F0A94E2F7842B8C9313C0A2E3D4
:10103000B0E0E2E3F0E08081482F8A81282F30E0A1
:1010400081E090E0022E02C0880F991F0A94E2F717
:10105000842B8C9327960FB6F894DEBF0FBECDBFBE
:10106000CF91DF910895DF93CF9300D000D00F92FE
:10107000CDB7DEB78A836B8319828A81282F30E04F
:101080003D832C834C815D814230510541F18C813F
:101090009D818330910534F42C813D8121303105CF
:1010A00061F052C04C815D814330510551F18C811A
:1010B0009D8184309105B9F147C0EBE3F0E0808178
:1010C000282F30E08B81882F90E0A90102C0559530
:1010D00047958A95E2F7CA018170898335C0E8E3B4
:1010E000F0E08081282F30E08B81882F90E0A901EB
:1010F00002C0559547958A95E2F7CA0181708983A8
:1011000023C0E5E3F0E08081282F30E08B81882F39
:1011100090E0A90102C0559547958A95E2F7CA016A
:101120008170898311C0E2E3F0E08081282F30E0F4
:101130008B81882F90E0A90102C0559547958A952B
:10114000E2F7CA018170898389810F900F900F9017
:101150000F900F90CF91DF910895DF93CF9300D040
:1011600000D0CDB7DEB789836A838981282F30E02C
:101170003C832B838B819C818230910551F12B81A3
:101180003C812330310534F48B819C818130910581
:1011900061F05AC02B813C812330310571F18B8184
:1011A0009C8184309105E9F14FC0ABE3B0E0EBE303
:1011B000F0E08081482F8A81282F30E081E090E0A4
:1011C000022E02C0880F991F0A94E2F784278C939D
:1011D0003BC0A8E3B0E0E8E3F0E08081482F8A81DB
:1011E000282F30E081E090E0022E02C0880F991F86
:1011F0000A94E2F784278C9327C0A5E3B0E0E5E3E7
:10120000F0E08081482F8A81282F30E081E090E053
:10121000022E02C0880F991F0A94E2F784278C934C
:1012200013C0A2E3B0E0E2E3F0E08081482F8A81BE
:10123000282F30E081E090E0022E02C0880F991F35
:101240000A94E2F784278C930F900F900F900F90E1
:10125000CF91DF910895DF93CF930F92CDB7DEB793
:10126000898382E060E041E00E941F0682E061E045
:1012700041E00E941F0682E062E041E00E941F06FA
:1012800082E064E041E00E941F0681E063E041E00B
:101290000E941F0681E062E041E00E941F0682E09A
:1012A00065E041E00E941F0682E066E041E00E94A6
:1012B0001F06898160E00E943D0A0F90CF91DF9167
:1012C0000895DF93CF930F92CDB7DEB789838981DD
:1012D0008A3030F58981982F917082E060E0492F43
:1012E0000E94290789818695982F917082E061E09C
:1012F000492F0E942907898186958695982F91709C
:1013000082E062E0492F0E942907898186958695AF
:101310008695982F917082E064E0492F0E942907FA
:101320000F90CF91DF910895DF93CF93CDB7DEB7C4
:1013300061970FB6F894DEBF0FBECDBF888B698B67
:1013400098898989891708F485C089898A3008F0C5
:1013500081C01F8688898F8778C08F850E94610928
:1013600080E090E0AAE7B4E48B879C87AD87BE87D6
:101370006B857C858D859E8520E030E84BE355E4C8
:101380000E941702DC01CB018F839887A987BA8757
:101390006F81788589859A8520E030E040E85FE3B9
:1013A0000E94710388232CF481E090E09E838D835A
:1013B0003FC06F81788589859A8520E03FEF4FE7B0
:1013C00057E40E94110318164CF56B857C858D85BA
:1013D0009E8520E030E040E251E40E941702DC01EB
:1013E000CB01BC01CD010E944100DC01CB019E83F9
:1013F0008D830FC08CE291E09C838B838B819C81D9
:101400000197F1F79C838B838D819E8101979E8349
:101410008D838D819E81009769F714C06F817885D7
:1014200089859A850E944100DC01CB019E838D83D2
:101430008D819E819A83898389819A810197F1F7B1
:101440009A8389838F858F5F8F879F858989891785
:1014500008F083CF61960FB6F894DEBF0FBECDBF04
:10146000CF91DF910895DF93CF93CDB7DEB780E0C2
:101470000E946109CF91DF910895DF93CF9300D04F
:10148000CDB7DEB789836A8389818130A9F481E091
:1014900063E040E00E94290781E062E041E00E94B1
:1014A000290782E065E041E00E94290782E066E0CA
:1014B00041E00E94290747C089818230A9F481E078
:1014C00063E041E00E94290781E062E040E00E9481
:1014D000290782E065E041E00E94290782E066E09A
:1014E00041E00E9429072FC089818330A9F481E05F
:1014F00063E041E00E94290781E062E041E00E9450
:10150000290782E065E040E00E94290782E066E06A
:1015100041E00E94290717C089818430A1F481E04D
:1015200063E041E00E94290781E062E041E00E941F
:10153000290782E065E041E00E94290782E066E039
:1015400040E00E9429078A810E9461090F900F9054
:10155000CF91DF910895DF93CF93CDB7DEB7ED97AD
:101560000FB6F894DEBF0FBECDBF1DAE1CAE1BAED6
:1015700089E08AAF89E089AF8DAD8436F9F41DAE7C
:101580008CAD8F5F8CAF8CAD8A3040F01CAE8BADD4
:101590008F5F8BAF8BAD8A3008F01BAE8AAD815068
:1015A0008AAF8AAD882354F489E08AAF89AD81502F
:1015B00089AF89AD882314F489E089AF81E00E9466
:1015C0002B098CAD0E94610980E090E0A0E2B1E4BB
:1015D0008DAB9EABAFABB8AF6DA97EA98FA998AD0F
:1015E00020E030E84BE355E40E941702DC01CB0118
:1015F00089AB9AABABABBCAB69A97AA98BA99CA907
:1016000020E030E040E85FE30E94710388232CF47F
:1016100081E090E098AB8FA73FC069A97AA98BA918
:101620009CA920E03FEF4FE757E40E9411031816F2
:101630004CF56DA97EA98FA998AD20E030E040E27D
:1016400051E40E941702DC01CB01BC01CD010E94D4
:101650004100DC01CB0198AB8FA70FC08CE291E079
:101660009EA78DA78DA59EA50197F1F79EA78DA793
:101670008FA598A9019798AB8FA78FA598A90097D8
:1016800069F714C069A97AA98BA99CA90E94410095
:10169000DC01CB0198AB8FA78FA598A99CA78BA73E
:1016A0008BA59CA50197F1F79CA78BA78DAD8F5FAC
:1016B0008DAF82E00E942B098BAD0E94610980E012
:1016C00090E0A0E2B1E48FA398A7A9A7BAA76FA161
:1016D00078A589A59AA520E030E84BE355E40E945F
:1016E0001702DC01CB018BA39CA3ADA3BEA36BA10E
:1016F0007CA18DA19EA120E030E040E85FE30E9444
:10170000710388232CF481E090E09AA389A33FC061
:101710006BA17CA18DA19EA120E03FEF4FE757E494
:101720000E94110318164CF56FA178A589A59AA5FA
:1017300020E030E040E251E40E941702DC01CB01DE
:10174000BC01CD010E944100DC01CB019AA389A319
:101750000FC08CE291E098A38F8F8F8D98A1019795
:10176000F1F798A38F8F89A19AA101979AA389A3D2
:1017700089A19AA1009769F714C06BA17CA18DA1E2
:101780009EA10E944100DC01CB019AA389A389A1FB
:101790009AA19E8F8D8F8D8D9E8D0197F1F79E8FD3
:1017A0008D8F8DAD8F5F8DAF83E00E942B098AAD49
:1017B0000E94610980E090E0A0E2B1E4898F9A8FF5
:1017C000AB8FBC8F698D7A8D8B8D9C8D20E030E83E
:1017D0004BE355E40E941702DC01CB018D8B9E8BFD
:1017E000AF8BB88F6D897E898F89988D20E030E02E
:1017F00040E85FE30E94710388232CF481E090E0CD
:101800009C8B8B8B3FC06D897E898F89988D20E062
:101810003FEF4FE757E40E94110318164CF5698D0E
:101820007A8D8B8D9C8D20E030E040E251E40E9467
:101830001702DC01CB01BC01CD010E944100DC019B
:10184000CB019C8B8B8B0FC08CE291E09A8B898BA8
:1018500089899A890197F1F79A8B898B8B899C8961
:1018600001979C8B8B8B8B899C89009769F714C09F
:101870006D897E898F89988D0E944100DC01CB01A2
:101880009C8B8B8B8B899C89988B8F878F85988974
:101890000197F1F7988B8F878DAD8F5F8DAF84E0C7
:1018A0000E942B0989AD0E94610980E090E0A0E2CE
:1018B000B1E48B879C87AD87BE876B857C858D85E2
:1018C0009E8520E030E84BE355E40E941702DC01DE
:1018D000CB018F839887A987BA876F81788589859F
:1018E0009A8520E030E040E85FE30E94710388239E
:1018F0002CF481E090E09E838D833FC06F817885DA
:1019000089859A8520E03FEF4FE757E40E94110355
:1019100018164CF56B857C858D859E8520E030E022
:1019200040E251E40E941702DC01CB01BC01CD0171
:101930000E944100DC01CB019E838D830FC08CE2AD
:1019400091E09C838B838B819C810197F1F79C8331
:101950008B838D819E8101979E838D838D819E8156
:10196000009769F714C06F81788589859A850E94F0
:101970004100DC01CB019E838D838D819E819A8302
:10198000898389819A810197F1F79A8389838DAD43
:101990008F5F8DAFF1CD2F923F924F925F926F92FA
:1019A0007F928F929F92AF92BF92CF92DF92EF92EF
:1019B000FF920F931F93CF93DF93CDB7DEB7CA1B70
:1019C000DB0B0FB6F894DEBF0FBECDBF09942A889B
:1019D000398848885F846E847D848C849B84AA8443
:1019E000B984C884DF80EE80FD800C811B81AA81D0
:1019F000B981CE0FD11D0FB6F894DEBF0FBECDBF9B
:081A0000ED010895F894FFCFF9
:081A08000000000000000000D6
:00000001FF
