:100000000C942A000C9482080C94AF080C94DC0821
:100010000C9447000C9447000C9447000C94470044
:100020000C9447000C9447000C9447000C94470034
:100030000C9447000C9447000C9447000C94470024
:100040000C94770E0C9447000C9447000C944700D6
:100050000C94470011241FBECFE5D8E0DEBFCDBF12
:1000600011E0A0E6B0E0E2E0F7E302C005900D92F7
:10007000A438B107D9F711E0A4E8B1E001C01D929E
:10008000AF38B107E1F70E94311A0C947F1B0C9432
:100090000000EF92FF920F931F937B018C0120E0F1
:1000A00030E040E05FE40E94F50388238CF0C80153
:1000B000B70120E030E040E05FE40E94C1010E940F
:1000C00055049B01AC01205030404040504806C0D0
:1000D000C801B7010E9455049B01AC01B901CA01D6
:1000E0001F910F91FF90EF900895A0E0B0E0EBE733
:1000F000F0E00C94481BDC012B01FA019C9192303A
:1001000008F439C1EB018881823008F433C194309E
:1001100069F4843009F02FC111969C91119789815F
:10012000981709F428C1ABE6B0E025C1843009F482
:1001300021C18230A9F4923009F01DC19A01AD01AC
:1001400088E0EA010990AE01E90109929E0181501F
:10015000C1F7E201898111969C918923818308C1AD
:10016000923009F407C112962D903C901397EB0141
:100170008A819B811496AD90BD90CD90DC901797AD
:10018000EC80FD800E811F819101281B390BB90184
:1001900037FF04C066277727621B730B6032710537
:1001A0000CF061C0121613066CF537014801062EDB
:1001B00004C096948794779467940A94D2F721E0C8
:1001C00030E040E050E004C0220F331F441F551FB1
:1001D0006A95D2F721503040404050402E213F21B7
:1001E00040235123211531054105510521F021E01E
:1001F00030E040E050E079018A01E628F72808293C
:1002000019293CC0232BD1F1260E371E350146019A
:10021000062E04C096948794779467940A94D2F734
:1002200021E030E040E050E004C0220F331F441FC3
:10023000551F6A95D2F721503040404050402A2146
:100240003B214C215D21211531054105510521F04E
:1002500021E030E040E050E059016A01A628B728CB
:10026000C828D9280BC0821593052CF01C01AA249C
:10027000BB24650103C0EE24FF24870111969C91E5
:10028000D20111968C91981709F445C0992339F041
:10029000A80197012A193B094C095D0906C0A6016E
:1002A00095012E193F09400B510B57FD08C01182D3
:1002B0003382228224833583468357831DC081E0A5
:1002C00081833382228288279927DC01821B930B4A
:1002D000A40BB50B84839583A683B7830DC0220F2F
:1002E000331F441F551F24833583468357838281E0
:1002F000938101979383828324813581468157813D
:10030000DA01C9010197A109B1098F5F9F4FAF4F72
:10031000BF4328F30BC0918333822282EA0CFB1C7B
:100320000C1D1D1DE482F5820683178383E0808304
:10033000248135814681578157FF1AC0C901AA27F8
:1003400097FDA095BA2F81709070A070B0705695EF
:10035000479537952795822B932BA42BB52B848318
:100360009583A683B7838281938101969383828349
:10037000DF0101C0D201CD01CDB7DEB7E2E10C94BF
:10038000641BA0E2B0E0E7ECF1E00C94541B69833D
:100390007A838B839C832D833E834F835887E9E048
:1003A000EE2EF12CEC0EFD1ECE010196B7010E943F
:1003B00046068E010F5E1F4FCE010596B8010E94C2
:1003C00046068A8991E089278A8BC701B801AE0168
:1003D000475E5F4F0E9475000E947105A096E6E09F
:1003E0000C94701BA0E2B0E0E8EFF1E00C94541B19
:1003F00069837A838B839C832D833E834F835887C5
:10040000F9E0EF2EF12CEC0EFD1ECE010196B701A6
:100410000E9446068E010F5E1F4FCE010596B80161
:100420000E944606C701B801AE01475E5F4F0E94B9
:1004300075000E947105A096E6E00C94701BA0E286
:10044000B0E0E5E2F2E00C94481B69837A838B8389
:100450009C832D833E834F835887CE010196BE0136
:10046000675F7F4F0E944606CE010596BE016F5E14
:100470007F4F0E9446069985923088F089898230A4
:10048000C8F0943019F4823051F404C0843029F457
:10049000923081F48BE690E0C6C0923049F420E0BF
:1004A0009A858A89981321E02A87CE010996BBC0D4
:1004B000823049F420E09A858A89981321E02A8BBA
:1004C000CE014196B0C02D843E844F8458886D88FB
:1004D0007E888F88988CEE24FF248701AA24BB2471
:1004E000650140E050E060E070E0E0E0F0E0C10174
:1004F00081709070892BE9F0E60CF71C081D191D1E
:100500009A01AB012A0D3B1D4C1D5D1D80E090E062
:10051000A0E0B0E0E614F7040805190520F481E036
:1005200090E0A0E0B0E0BA01A901480F591F6A1F8E
:100530007B1FAA0CBB1CCC1CDD1C97FE08C081E0F5
:1005400090E0A0E0B0E0A82AB92ACA2ADB2A3196B6
:10055000E032F10549F0660C771C881C991C569412
:10056000479437942794C3CFFA85EA892B893C892D
:100570008B859C85280F391F2E5F3F4F17C0CA01FE
:1005800081709070892B61F016950795F794E79428
:1005900080E090E0A0E0B0E8E82AF92A0A2B1B2BC3
:1005A00076956795579547952F5F3F4F77FDE7CF36
:1005B0000CC0440F551F661F771F17FD4160EE0CDE
:1005C000FF1C001F111F21503040403090E05907A0
:1005D00090E0690790E4790760F32B8F3C8FDB0193
:1005E000CA018F779070A070B07080349105A1051A
:1005F000B10561F447FD0AC0E114F10401051105DC
:1006000029F0405C5F4F6F4F7F4F40781A8EFE1786
:1006100011F081E08A8F4D8F5E8F6F8F78A383E01A
:10062000898FCE0149960E947105A096E2E10C9453
:10063000641BA8E1B0E0EFE1F3E00C94501B698388
:100640007A838B839C832D833E834F835887B9E0C5
:10065000EB2EF12CEC0EFD1ECE010196B7010E948F
:1006600046068E010F5E1F4FCE010596B8010E940F
:1006700046062985223008F47EC03989323010F4CC
:10068000B8017CC08A859A8989278A87243011F02D
:10069000223031F4231709F06EC06BE670E06EC0B3
:1006A000343039F41D861E861F86188A1C861B86E8
:1006B00004C0323021F484E08987B7015FC02B8504
:1006C0003C858B899C89281B390B3C872B87ED84C3
:1006D000FE840F851889AD88BE88CF88D88CEA142F
:1006E000FB040C051D0540F4EE0CFF1C001F111F40
:1006F000215030403C872B8720E030E040E050E044
:1007000080E090E0A0E0B0E460E070E0EA14FB0478
:100710000C051D0540F0282B392B4A2B5B2BEA18C2
:10072000FB080C091D09B695A79597958795EE0CC2
:10073000FF1C001F111F6F5F7F4F6F31710531F775
:10074000DA01C9018F779070A070B0708034910584
:10075000A105B10561F427FD0AC0E114F10401050A
:10076000110529F0205C3F4F4F4F5F4F20782D87B8
:100770003E874F87588BBE01675F7F4FCB010E943A
:1007800071056896EAE00C946C1BA8E1B0E0EBEC14
:10079000F3E00C94541B69837A838B839C832D83B1
:1007A0003E834F83588789E0E82EF12CEC0EFD1E26
:1007B000CE010196B7010E9446068E010F5E1F4FC3
:1007C000CE010596B8010E9446068985823040F028
:1007D0008989823028F0C701B8010E94BE0601C095
:1007E0008FEF6896E6E00C94701BA8E1B0E0EBEFA9
:1007F000F3E00C94541B69837A838B839C832D8351
:100800003E834F83588789E0E82EF12CEC0EFD1EC5
:10081000CE010196B7010E9446068E010F5E1F4F62
:10082000CE010596B8010E9446068985823040F0C7
:100830008989823028F0C701B8010E94BE0601C034
:100840008FEF6896E6E00C94701BA8E1B0E0EBE255
:10085000F4E00C94541B69837A838B839C832D83EF
:100860003E834F83588789E0E82EF12CEC0EFD1E65
:10087000CE010196B7010E9446068E010F5E1F4F02
:10088000CE010596B8010E9446068985823040F067
:100890008989823028F0C701B8010E94BE0601C0D4
:1008A00081E06896E6E00C94701BACE0B0E0EBE50C
:1008B000F4E00C94581B69837A838B839C83CE016C
:1008C0000196BE016B5F7F4F0E9446068D8182308C
:1008D00061F1823050F1843021F48E81882351F10E
:1008E0002EC02F81388537FD20C06E812F31310514
:1008F0001CF06623F9F023C08EE190E0821B930B7D
:1009000029853A854B855C8504C056954795379572
:1009100027958A95D2F76623B1F05095409530958A
:1009200021953F4F4F4F5F4F0EC020E030E040E039
:1009300050E009C02FEF3FEF4FEF5FE704C020E02A
:1009400030E040E050E8B901CA012C96E2E00C9496
:10095000741BA8E0B0E0EFEAF4E00C94501B7B01BC
:100960008C01611571058105910519F482E0898377
:1009700060C083E089838EE1C82ED12CDC82CB82DB
:10098000ED82FE820F831887C801B7010E942205FD
:10099000FC013197F7FF3BC0222733272E1B3F0B6B
:1009A00057016801022E04C0D694C794B794A79447
:1009B0000A94D2F740E050E060E070E081E090E01F
:1009C000A0E0B0E004C0880F991FAA1FBB1F2A95A2
:1009D000D2F70197A109B1098E219F21A023B1234C
:1009E0000097A105B10521F041E050E060E070E022
:1009F0004A295B296C297D294D835E836F83788723
:100A00008EE190E08E1B9F0B9C838B8312C03097EE
:100A100081F00E2E04C0EE0CFF1C001F111F0A9463
:100A2000D2F7ED82FE820F831887CE1ADF0ADC82AE
:100A3000CB821A82CE0101960E9471052896EAE0C7
:100A40000C946C1BEF92FF920F931F937B018C0110
:100A500080E0E81680E0F80681E0080780E01807EB
:100A600088F48FEFE816F1040105110531F028F044
:100A700088E090E0A0E0B0E017C080E090E0A0E067
:100A8000B0E012C080E0E81680E0F80680E00807D9
:100A900081E0180728F088E190E0A0E0B0E004C011
:100AA00080E190E0A0E0B0E020E230E040E050E003
:100AB000281B390B4A0B5B0B04C016950795F7945E
:100AC000E7948A95D2F7F701ED58FF4F8081281BF4
:100AD000310941095109C9011F910F91FF90EF9010
:100AE0000895DF92EF92FF920F931F93FC01E48031
:100AF000F58006811781D1808081823048F480E0C2
:100B000090E0A0E1B0E0E82AF92A0A2B1B2BA5C04F
:100B1000843009F49FC0823021F4EE24FF24870141
:100B200005C0E114F1040105110519F4E0E0F0E05D
:100B300096C0628173819FEF623879070CF05BC0C9
:100B400022E83FEF261B370B2A3131052CF020E03D
:100B500030E040E050E02AC0B801A701022E04C0F6
:100B600076956795579547950A94D2F781E090E07E
:100B7000A0E0B0E004C0880F991FAA1FBB1F2A95F0
:100B8000D2F70197A109B1098E219F21A023B1239A
:100B90000097A105B10521F081E090E0A0E0B0E070
:100BA0009A01AB01282B392B4A2B5B2BDA01C901A7
:100BB0008F779070A070B07080349105A105B10559
:100BC00039F427FF09C0205C3F4F4F4F5F4F04C0EF
:100BD000215C3F4F4F4F5F4FE0E0F0E02030A0E05E
:100BE0003A07A0E04A07A0E45A0710F0E1E0F0E07D
:100BF00079018A0127C06038710564F5FB01E1586D
:100C0000FF4FD801C7018F779070A070B07080340B
:100C10009105A105B10539F4E7FE0DC080E490E02F
:100C2000A0E0B0E004C08FE390E0A0E0B0E0E80E08
:100C3000F91E0A1F1B1F17FF05C016950795F7948D
:100C4000E794319687E016950795F794E7948A958F
:100C5000D1F705C0EE24FF248701EFEFF0E06E2FFF
:100C6000679566276795902F9F77D794DD24D79453
:100C70008E2F8695492F462B582F5D29B701CA0123
:100C80001F910F91FF90EF90DF900895FC01DB0121
:100C9000408151812281622F6F7770E0221F2227CD
:100CA000221F9381892F880F822B282F30E0991FD4
:100CB0009927991F11969C93119721153105A9F534
:100CC000411551056105710511F482E037C082E8D4
:100CD0009FEF13969C938E9312979A01AB0167E056
:100CE000220F331F441F551F6A95D1F783E08C9361
:100CF0000DC0220F331F441F551F12968D919C91DA
:100D00001397019713969C938E931297203080E04F
:100D1000380780E0480780E4580758F314962D936D
:100D20003D934D935C93179708952F3F310579F4C8
:100D3000411551056105710519F484E08C930895FE
:100D400064FF03C081E08C9312C01C9210C02F5727
:100D5000304013963C932E93129783E08C9387E058
:100D6000440F551F661F771F8A95D1F7706414963C
:100D70004D935D936D937C93179708951F93DC01BA
:100D8000FB019C91923008F447C08081823008F4C6
:100D900043C0943051F411961C91843099F58181AF
:100DA000682F70E0611B71093FC0843021F09230E0
:100DB00031F48230B9F18181882389F12DC01196F7
:100DC0001C9111978230F1F081811817D9F4129695
:100DD0002D913C911397828193818217930794F010
:100DE00028173907BCF014968D919D910D90BC91F8
:100DF000A02D2481358146815781281739074A075C
:100E00005B0718F4112341F00AC082179307A40767
:100E1000B50740F4112319F061E070E005C06FEFF1
:100E20007FEF02C060E070E0CB011F910895DF9377
:100E3000CF93CDB7DEB7AFE5B0E0EFE5F0E080816E
:100E400080688C93CF91DF910895DF93CF93CDB7D6
:100E5000DEB7AFE5B0E0EFE5F0E080818F778C930F
:100E6000CF91DF910895DF93CF93CDB7DEB784E0C4
:100E700062E040E00E948D0984E062E041E00E946F
:100E8000970AABE5B0E0EBE5F0E0808180648C93FD
:100E9000A5E5B0E0E5E5F0E080818E7F8C93A5E5E7
:100EA000B0E0E5E5F0E0808182608C93CF91DF9146
:100EB0000895DF93CF93CDB7DEB784E063E040E0E1
:100EC0000E948D0984E063E041E00E94970AABE54F
:100ED000B0E0EBE5F0E0808180688C93A5E5B0E0C0
:100EE000E5E5F0E0808184608C93A5E5B0E0E5E580
:100EF000F0E0808188608C93CF91DF910895DF933B
:100F0000CF93CDB7DEB781E062E040E00E948D096B
:100F100084E062E041E00E94970AABE5B0E0EBE5D7
:100F2000F0E0808180628C93A5E5B0E0E5E5F0E03B
:100F3000808180648C93CF91DF910895DF93CF936C
:100F400000D000D0CDB7DEB789836A838981282F8E
:100F500030E03C832B838B819C818630910559F056
:100F60002B813C8127303105E1F08B819C818530DC
:100F7000910569F141C084E062E040E00E948D0982
:100F800084E062E041E00E94970AABE5B0E0EBE567
:100F9000F0E0808180648C9389816A810E940308DB
:100FA0002BC084E063E040E00E948D0984E063E0B0
:100FB00041E00E94970AABE5B0E0EBE5F0E080810C
:100FC00080688C9389816A810E94030815C081E042
:100FD00062E040E00E948D0984E062E041E00E940E
:100FE000970AABE5B0E0EBE5F0E0808180628C939E
:100FF00089816A810E9403080F900F900F900F90D3
:10100000CF91DF910895DF93CF9300D000D0CDB77B
:10101000DEB789836A838981282F30E03C832B8364
:101020008B819C818630910559F02B813C81273042
:101030003105A9F08B819C8185309105F9F025C09F
:10104000A5E5B0E0E5E5F0E080818E7F8C93A5E535
:10105000B0E0E5E5F0E0808182608C9316C0A5E504
:10106000B0E0E5E5F0E080818B7F8C93A5E5B0E012
:10107000E5E5F0E0808188608C9307C0A5E5B0E0ED
:10108000E5E5F0E0808180648C930F900F900F90E5
:101090000F90CF91DF910895DF93CF9300D0CDB71C
:1010A000DEB79A83898389819A81909385018093A1
:1010B00084010F900F90CF91DF910895DF93CF932C
:1010C00000D0CDB7DEB79A83898389819A819093C6
:1010D0008701809386010F900F90CF91DF91089543
:1010E000DF93CF9300D0CDB7DEB79A838983898110
:1010F0009A8190938901809388010F900F90CF91EE
:10110000DF9108951F920F920FB60F9211242F9323
:101110003F934F935F936F937F938F939F93AF937F
:10112000BF93EF93FF93DF93CF93CDB7DEB7E091FB
:101130008401F09185010995CF91DF91FF91EF91A5
:10114000BF91AF919F918F917F916F915F914F91DF
:101150003F912F910F900FBE0F901F9018951F92E7
:101160000F920FB60F9211242F933F934F935F93DB
:101170006F937F938F939F93AF93BF93EF93FF935F
:10118000DF93CF93CDB7DEB7E0918601F091870171
:101190000995CF91DF91FF91EF91BF91AF919F9111
:1011A0008F917F916F915F914F913F912F910F9010
:1011B0000FBE0F901F9018951F920F920FB60F92AF
:1011C00011242F933F934F935F936F937F938F934C
:1011D0009F93AF93BF93EF93FF93DF93CF93CDB7DD
:1011E000DEB7E0918801F09189010995CF91DF91F7
:1011F000FF91EF91BF91AF919F918F917F916F91EF
:101200005F914F913F912F910F900FBE0F901F90C4
:101210001895DF93CF9300D000D0CDB7DEB7898388
:101220006A838981282F30E03C832B838B819C81CA
:1012300082309105D9F02B813C812330310534F483
:101240008B819C818130910561F01EC02B813C8196
:101250002330310581F08B819C818430910581F0B0
:1012600013C0EAE3F0E08A8180830EC0E7E3F0E098
:101270008A81808309C0E4E3F0E08A81808304C02E
:10128000E1E3F0E08A8180830F900F900F900F9040
:10129000CF91DF910895DF93CF9300D000D0CDB7E9
:1012A000DEB789836A838981282F30E03C832B83D2
:1012B0008B819C8182309105D9F02B813C81233038
:1012C000310534F48B819C818130910561F01EC021
:1012D0002B813C812330310581F08B819C818430CE
:1012E000910581F013C0EBE3F0E08A8180830EC0AA
:1012F000E8E3F0E08A81808309C0E5E3F0E08A81D9
:10130000808304C0E2E3F0E08A8180830F900F9035
:101310000F900F90CF91DF910895DF93CF93CDB7CA
:10132000DEB727970FB6F894DEBF0FBECDBF898317
:101330006A834B838981853008F0F0C08A818830C8
:1013400008F0ECC08B81882309F075C08981282FB3
:1013500030E03F832E838E819F818230910561F141
:101360002E813F812330310534F48E819F8181307D
:10137000910569F0D3C02E813F812330310589F179
:101380008E819F818430910509F440C0C7C0AAE3D3
:10139000B0E0EAE3F0E08081482F8A81282F30E036
:1013A00081E090E0022E02C0880F991F0A94E2F7B4
:1013B000809584238C93B2C0A7E3B0E0E7E3F0E02C
:1013C0008081482F8A81282F30E081E090E0022E32
:1013D00002C0880F991F0A94E2F7809584238C93AA
:1013E0009DC0A4E3B0E0E4E3F0E08081482F8A816F
:1013F000282F30E081E090E0022E02C0880F991F74
:101400000A94E2F7809584238C9388C0A1E3B0E02E
:10141000E1E3F0E08081482F8A81282F30E081E0ED
:1014200090E0022E02C0880F991F0A94E2F780957F
:1014300084238C9373C08B81813009F06FC08981C4
:10144000282F30E03D832C838C819D818230910553
:1014500051F12C813D812330310534F48C819D8103
:101460008130910561F05AC02C813D8123303105D6
:1014700071F18C819D8184309105E9F14FC0AAE31F
:10148000B0E0EAE3F0E08081482F8A81282F30E045
:1014900081E090E0022E02C0880F991F0A94E2F7C3
:1014A000842B8C933BC0A7E3B0E0E7E3F0E08081BE
:1014B000482F8A81282F30E081E090E0022E02C080
:1014C000880F991F0A94E2F7842B8C9327C0A4E31A
:1014D000B0E0E4E3F0E08081482F8A81282F30E0FB
:1014E00081E090E0022E02C0880F991F0A94E2F773
:1014F000842B8C9313C0A1E3B0E0E1E3F0E08081A2
:10150000482F8A81282F30E081E090E0022E02C02F
:10151000880F991F0A94E2F7842B8C9327960FB6B5
:10152000F894DEBF0FBECDBFCF91DF910895DF935A
:10153000CF93CDB7DEB727970FB6F894DEBF0FBEB7
:10154000CDBF89836A834B838981853008F0F0C0E1
:101550008A81883008F0ECC08B81882309F075C03F
:101560008981282F30E03F832E838E819F818230B6
:10157000910561F12E813F812330310534F48E8154
:101580009F818130910569F0D3C02E813F81233046
:10159000310589F18E819F818430910509F440C025
:1015A000C7C0ABE3B0E0EBE3F0E08081482F8A8175
:1015B000282F30E081E090E0022E02C0880F991FB2
:1015C0000A94E2F7809584238C93B2C0A8E3B0E03C
:1015D000E8E3F0E08081482F8A81282F30E081E025
:1015E00090E0022E02C0880F991F0A94E2F78095BE
:1015F00084238C939DC0A5E3B0E0E5E3F0E0808117
:10160000482F8A81282F30E081E090E0022E02C02E
:10161000880F991F0A94E2F7809584238C9388C0E1
:10162000A2E3B0E0E2E3F0E08081482F8A81282F36
:1016300030E081E090E0022E02C0880F991F0A94EA
:10164000E2F7809584238C9373C08B81813009F0FD
:101650006FC08981282F30E03D832C838C819D8150
:101660008230910551F12C813D812330310534F4D4
:101670008C819D818130910561F05AC02C813D8122
:101680002330310571F18C819D8184309105E9F120
:101690004FC0ABE3B0E0EBE3F0E08081482F8A81FC
:1016A000282F30E081E090E0022E02C0880F991FC1
:1016B0000A94E2F7842B8C933BC0A8E3B0E0E8E304
:1016C000F0E08081482F8A81282F30E081E090E08F
:1016D000022E02C0880F991F0A94E2F7842B8C9384
:1016E00027C0A5E3B0E0E5E3F0E08081482F8A81E0
:1016F000282F30E081E090E0022E02C0880F991F71
:101700000A94E2F7842B8C9313C0A2E3B0E0E2E3E7
:10171000F0E08081482F8A81282F30E081E090E03E
:10172000022E02C0880F991F0A94E2F7842B8C9333
:1017300027960FB6F894DEBF0FBECDBFCF91DF91D5
:101740000895DF93CF9300D000D00F92CDB7DEB7CE
:101750008A836B8319828A81282F30E03D832C8312
:101760004C815D814230510541F18C819D818330F6
:10177000910534F42C813D812130310561F052C056
:101780004C815D814330510551F18C819D818430C4
:101790009105B9F147C0EBE3F0E08081282F30E0FC
:1017A0008B81882F90E0A90102C0559547958A95B5
:1017B000E2F7CA018170898335C0E8E3F0E08081F7
:1017C000282F30E08B81882F90E0A90102C0559529
:1017D00047958A95E2F7CA018170898323C0E5E3C2
:1017E000F0E08081282F30E08B81882F90E0A901E4
:1017F00002C0559547958A95E2F7CA0181708983A1
:1018000011C0E2E3F0E08081282F30E08B81882F47
:1018100090E0A90102C0559547958A95E2F7CA0163
:101820008170898389810F900F900F900F900F9096
:10183000CF91DF910895DF93CF9300D000D0CDB743
:10184000DEB789836A838981282F30E03C832B832C
:101850008B819C818230910551F12B813C81233019
:10186000310534F48B819C818130910561F05AC03F
:101870002B813C812330310571F18B819C81843037
:101880009105E9F14FC0ABE3B0E0EBE3F0E080811C
:10189000482F8A81282F30E081E090E0022E02C09C
:1018A000880F991F0A94E2F784278C933BC0A8E322
:1018B000B0E0E8E3F0E08081482F8A81282F30E013
:1018C00081E090E0022E02C0880F991F0A94E2F78F
:1018D00084278C9327C0A5E3B0E0E5E3F0E08081A6
:1018E000482F8A81282F30E081E090E0022E02C04C
:1018F000880F991F0A94E2F784278C9313C0A2E300
:10190000B0E0E2E3F0E08081482F8A81282F30E0C8
:1019100081E090E0022E02C0880F991F0A94E2F73E
:1019200084278C930F900F900F900F90CF91DF91A1
:101930000895DF93CF9300D000D000D0CDB7DEB7AD
:101940008A836B8319828A81853008F06EC08B810F
:10195000883008F06AC08A81282F30E03E832D83CA
:101960004D815E814230510541F18D819E818330F0
:10197000910534F42D813E812130310561F052C052
:101980004D815E814330510551F18D819E818430BE
:101990009105B9F147C0E9E3F0E08081282F30E0FC
:1019A0008B81882F90E0A90102C0559547958A95B3
:1019B000E2F7CA018170898335C0E6E3F0E08081F7
:1019C000282F30E08B81882F90E0A90102C0559527
:1019D00047958A95E2F7CA018170898323C0E3E3C2
:1019E000F0E08081282F30E08B81882F90E0A901E2
:1019F00002C0559547958A95E2F7CA01817089839F
:101A000011C0E0E3F0E08081282F30E08B81882F47
:101A100090E0A90102C0559547958A95E2F7CA0161
:101A20008170898359815C8302C08FEF8C838C81A4
:101A300026960FB6F894DEBF0FBECDBFCF91DF91D3
:101A40000895DF93CF93CDB7DEB7E7E2F0E0808172
:101A50008F7380648083E7E2F0E080818F7D8083F4
:101A6000E6E2F0E08081887F86608083E6E2F0E055
:101A7000808180688083E6E2F0E0808188608083F6
:101A8000CF91DF910895DF93CF9300D0CDB7DEB72C
:101A90008A8382E089838A81883080F481E06A8148
:101AA00040E00E948D09E7E2F0E08A818F71982F73
:101AB0009F718081807E892B808302C083E089832F
:101AC00089810F900F90CF91DF910895DF93CF938D
:101AD000CDB7DEB727970FB6F894DEBF0FBECDBFE8
:101AE0009F838E8382E08D8319821A821B821C82DF
:101AF0008E819F81009711F1E6E2F0E080818064A1
:101B00008083E6E2F0E0808180718823D1F3E6E211
:101B1000F0E080818071882371F0E6E2F0E080815E
:101B200080618083E4E2F0E080819181EE81FF8139
:101B30009183808304C081E08D8301C01D828D81EB
:101B400027960FB6F894DEBF0FBECDBFCF91DF91C1
:101B50000895DF93CF93CDB7DEB7E6E2F0E0808162
:101B600080648083CF91DF910895DF93CF9300D07D
:101B700000D0CDB7DEB79C838B8387E08A8382E079
:101B800089838B819C810097C1F013C08A810E9458
:101B9000430D8A81882F90E09C01220F331F8B8197
:101BA0009C81820F931F0E94660D89838A818150D8
:101BB0008A838A81882351F701C0198289810F9015
:101BC0000F900F900F90CF91DF910895EF92FF92B9
:101BD0000F931F93DF93CF93CDB7DEB72C970FB63C
:101BE000F894DEBF0FBECDBF9E838D8378876F8351
:101BF0005A8749873C872B871C821B821A8219824D
:101C0000E4E2F0E0808191819A83898329813A819D
:101C10008D819E81A901481B590BCA017C0100E0FE
:101C200010E02B853C8589859A85A901481B590BB5
:101C3000CA019C0140E050E0C801B7010E94071BA7
:101C40007B018C012F8138858D819E81A901481BE4
:101C5000590BCA019C0140E050E0C801B7010E9445
:101C6000261BDA01C9019C0189859A85820F931F81
:101C70009C838B838B819C812C960FB6F894DEBF5E
:101C80000FBECDBFCF91DF911F910F91FF90EF90CD
:101C90000895DF93CF9300D000D00F92CDB7DEB779
:101CA0009B838A837D836C8382E089838A819B8185
:101CB000009739F08A819B8190938B0180938A01F0
:101CC00001C019828C819D81009739F08C819D81A2
:101CD00090938D0180938C0101C0198289810F90AE
:101CE0000F900F900F900F90CF91DF9108951F925A
:101CF0000F920FB60F9211242F933F934F935F9340
:101D00006F937F938F939F93AF93BF93EF93FF93C3
:101D1000DF93CF93CDB7DEB7A0918A01B0918B014D
:101D2000E4E2F0E08081918111969C938E93809102
:101D30008C0190918D01009729F0E0918C01F09138
:101D40008D010995CF91DF91FF91EF91BF91AF91F7
:101D50009F918F917F916F915F914F913F912F91C3
:101D60000F900FBE0F901F901895DF93CF9300D068
:101D70000F92CDB7DEB789838981282F30E03B836E
:101D80002A838A819B818130910501F12A813B81DF
:101D9000223031052CF48A819B81009761F036C096
:101DA0002A813B8122303105E1F08A819B81833099
:101DB000910511F12BC084E067E040E00E948D099D
:101DC00084E067E041E00E94970A20C084E066E07A
:101DD00040E00E948D0984E066E041E00E94970A9D
:101DE00015C084E065E040E00E948D0984E065E074
:101DF00041E00E94970A0AC084E063E040E00E944C
:101E00008D0984E063E041E00E94970A0F900F90F3
:101E10000F90CF91DF910895DF93CF9300D0CDB78E
:101E2000DEB7898384E067E00E94990C882349F437
:101E300084E067E00E94990C8130D1F781E08A83C9
:101E400001C01A828A810F900F90CF91DF9108957F
:101E5000DF93CF930F92CDB7DEB7898382E060E046
:101E600041E00E948D0982E061E041E00E948D091D
:101E700082E062E041E00E948D0982E064E041E09E
:101E80000E948D0981E063E041E00E948D0981E0BC
:101E900062E041E00E948D0982E065E041E00E943D
:101EA0008D0982E066E041E00E948D09898160E051
:101EB0000E943A100F90CF91DF910895DF93CF9356
:101EC0000F92CDB7DEB7898389818A3030F5898159
:101ED000982F917082E060E0492F0E94970A8981D3
:101EE0008695982F917082E061E0492F0E94970AB1
:101EF000898186958695982F917082E062E0492FBE
:101F00000E94970A8981869586958695982F91706B
:101F100082E064E0492F0E94970A0F90CF91DF91F1
:101F20000895DF93CF93CDB7DEB761970FB6F894DE
:101F3000DEBF0FBECDBF888B698B988989898917D1
:101F400008F485C089898A3008F081C01F86888995
:101F50008F8778C08F850E945E0F80E090E0AAE7AF
:101F6000B4E48B879C87AD87BE876B857C858D8528
:101F70009E8520E030E84BE355E40E941F02DC011F
:101F8000CB018F839887A987BA876F8178858985E8
:101F90009A8520E030E040E85FE30E942504882332
:101FA0002CF481E090E09E838D833FC06F81788523
:101FB00089859A8520E03FEF4FE757E40E94C503EB
:101FC00018164CF56B857C858D859E8520E030E06C
:101FD00040E251E40E941F02DC01CB01BC01CD01B3
:101FE0000E944900DC01CB019E838D830FC08CE2EF
:101FF00091E09C838B838B819C810197F1F79C837B
:102000008B838D819E8101979E838D838D819E819F
:10201000009769F714C06F81788589859A850E9439
:102020004900DC01CB019E838D838D819E819A8343
:10203000898389819A810197F1F79A8389838F85B2
:102040008F5F8F879F858989891708F083CF619675
:102050000FB6F894DEBF0FBECDBFCF91DF910895CC
:10206000DF93CF93CDB7DEB780E00E945E0FCF91B4
:10207000DF910895DF93CF9300D0CDB7DEB789838A
:102080006A8389818130A9F481E063E040E00E94A5
:10209000970A81E062E041E00E94970A82E065E0F1
:1020A00041E00E94970A82E066E041E00E94970AC0
:1020B00047C089818230A9F481E063E041E00E9459
:1020C000970A81E062E040E00E94970A82E065E0C2
:1020D00041E00E94970A82E066E041E00E94970A90
:1020E0002FC089818330A9F481E063E041E00E9440
:1020F000970A81E062E041E00E94970A82E065E091
:1021000040E00E94970A82E066E041E00E94970A60
:1021100017C089818430A1F481E063E041E00E942E
:10212000970A81E062E041E00E94970A82E065E060
:1021300041E00E94970A82E066E040E00E94970A30
:102140008A810E945E0F0F900F90CF91DF910895CA
:102150000F931F93DF93CF93CDB7DEB7C754D04013
:102160000FB6F894DEBF0FBECDBFFE01E95BFF4F97
:102170008083FE01E95BFF4F808182958F70982FED
:10218000917082E060E0492F0E94970AFE01E95BAE
:10219000FF4F8081829586958770982F917082E09D
:1021A00061E0492F0E94970AFE01E95BFF4F8081A1
:1021B0008295869586958370982F917082E062E073
:1021C000492F0E94970AFE01E95BFF4F8081982FFB
:1021D000991F9927991F82E064E0492F0E94970A6E
:1021E00081E063E040E00E94970AFE01ED5BFF4F53
:1021F00080E090E0A0E8BFE380839183A283B38373
:102200008E01015C1F4FFE01ED5BFF4F608171810C
:102210008281938120E030E84BE355E40E941F0265
:10222000DC01CB01F80180839183A283B383FE019B
:10223000FF96608171818281938120E030E040E8E7
:102240005FE30E94250488232CF481E090E09EAF98
:102250008DAF46C0FE01FF966081718182819381BE
:1022600020E03FEF4FE757E40E94C503181664F5DE
:10227000FE01ED5BFF4F608171818281938120E0DF
:1022800030E040E251E40E941F02DC01CB01BC01BE
:10229000CD010E944900DC01CB019EAF8DAF0FC084
:1022A0008CE291E09CAF8BAF8BAD9CAD0197F1F7C9
:1022B0009CAF8BAF8DAD9EAD01979EAF8DAF8DADB9
:1022C0009EAD009769F716C0FE01FF96608171818F
:1022D000828193810E944900DC01CB019EAF8DAFCA
:1022E0008DAD9EAD9AAF89AF89AD9AAD0197F1F7EB
:1022F0009AAF89AF81E062E041E00E94970A80E0F6
:1023000090E0A0E8BFE38DAB9EABAFABB8AF6DA9DB
:102310007EA98FA998AD20E030E84BE355E40E94F8
:102320001F02DC01CB0189AB9AABABABBCAB69A99B
:102330007AA98BA99CA920E030E040E85FE30E94E5
:10234000250488232CF481E090E098AB8FA73FC050
:1023500069A97AA98BA99CA920E03FEF4FE757E430
:102360000E94C50318164CF56DA97EA98FA998ADDA
:1023700020E030E040E251E40E941F02DC01CB018A
:10238000BC01CD010E944900DC01CB0198AB8FA7B5
:102390000FC08CE291E09EA78DA78DA59EA5019709
:1023A000F1F79EA78DA78FA598A9019798AB8FA746
:1023B0008FA598A9009769F714C069A97AA98BA974
:1023C0009CA90E944900DC01CB0198AB8FA78FA587
:1023D00098A99CA78BA78BA59CA50197F1F79CA713
:1023E0008BA781E062E040E00E94970A80E090E0E5
:1023F000A0E8BFE38FA398A7A9A7BAA76FA178A564
:1024000089A59AA520E030E84BE355E40E941F021D
:10241000DC01CB018BA39CA3ADA3BEA36BA17CA1CC
:102420008DA19EA120E030E040E85FE30E942504FA
:1024300088232CF481E090E09AA389A33FC06BA18C
:102440007CA18DA19EA120E03FEF4FE757E40E94C1
:10245000C50318164CF56FA178A589A59AA520E0AB
:1024600030E040E251E40E941F02DC01CB01BC01DC
:10247000CD010E944900DC01CB019AA389A30FC0C2
:102480008CE291E098A38F8F8F8D98A10197F1F73F
:1024900098A38F8F89A19AA101979AA389A389A153
:1024A0009AA1009769F714C06BA17CA18DA19EA190
:1024B0000E944900DC01CB019AA389A389A19AA1BA
:1024C0009E8F8D8F8D8D9E8D0197F1F79E8F8D8FB5
:1024D000FE01E95BFF4F8081982F917082E060E000
:1024E000492F0E94970AFE01E95BFF4F8081869584
:1024F000982F917082E061E0492F0E94970AFE01B7
:10250000E95BFF4F808186958695982F917082E0D8
:1025100062E0492F0E94970AFE01E95BFF4F80812C
:10252000869586958695982F917082E064E0492F74
:102530000E94970A81E062E041E00E94970A80E0F1
:1025400090E0A0E8BFE3898F9A8FAB8FBC8F698D35
:102550007A8D8B8D9C8D20E030E84BE355E40E9412
:102560001F02DC01CB018D8B9E8BAF8BB88F6D89E9
:102570007E898F89988D20E030E040E85FE30E94FB
:10258000250488232CF481E090E09C8B8B8B3FC04A
:102590006D897E898F89988D20E03FEF4FE757E462
:1025A0000E94C50318164CF5698D7A8D8B8D9C8D14
:1025B00020E030E040E251E40E941F02DC01CB0148
:1025C000BC01CD010E944900DC01CB019C8B8B8BAF
:1025D0000FC08CE291E09A8B898B89899A89019747
:1025E000F1F79A8B898B8B899C8901979C8B8B8BBC
:1025F0008B899C89009769F714C06D897E898F89C2
:10260000988D0E944900DC01CB019C8B8B8B8B89C0
:102610009C89988B8F878F8598890197F1F7988B84
:102620008F8781E062E040E00E94970A80E090E0BE
:10263000A0E8BFE38B879C87AD87BE876B857C85D1
:102640008D859E8520E030E84BE355E40E941F0213
:10265000DC01CB018F839887A987BA876F81788542
:1026600089859A8520E030E040E85FE30E942504F8
:1026700088232CF481E090E09E838D833FC06F819E
:10268000788589859A8520E03FEF4FE757E40E94DF
:10269000C50318164CF56B857C858D859E8520E0DD
:1026A00030E040E251E40E941F02DC01CB01BC019A
:1026B000CD010E944900DC01CB019E838D830FC0B8
:1026C0008CE291E09C838B838B819C810197F1F755
:1026D0009C838B838D819E8101979E838D838D81C9
:1026E0009E81009769F714C06F81788589859A85E6
:1026F0000E944900DC01CB019E838D838D819E81E8
:102700009A83898389819A810197F1F79A838983D2
:10271000C95BDF4F0FB6F894DEBF0FBECDBFCF91C0
:10272000DF911F910F9108950F931F93DF93CF9324
:10273000CDB7DEB7C754D0400FB6F894DEBF0FBE9A
:10274000CDBFFE01E95BFF4F8083FE01E95BFF4FD8
:10275000808182958F70982F917082E060E0492F80
:102760000E94970AFE01E95BFF4F80818295869562
:102770008770982F917082E061E0492F0E94970A3C
:10278000FE01E95BFF4F8081829586958695837077
:10279000982F917082E062E0492F0E94970AFE0113
:1027A000E95BFF4F8081982F991F9927991F82E03D
:1027B00064E0492F0E94970A81E063E041E00E94B3
:1027C000970AFE01ED5BFF4F80E090E0A0E8BFE3D9
:1027D00080839183A283B3838E01015C1F4FFE012E
:1027E000ED5BFF4F608171818281938120E030E851
:1027F0004BE355E40E941F02DC01CB01F80180830A
:102800009183A283B383FE01FF96608171818281EF
:10281000938120E030E040E85FE30E9425048823B4
:102820002CF481E090E09EAF8DAF46C0FE01FF9694
:10283000608171818281938120E03FEF4FE757E40F
:102840000E94C503181664F5FE01ED5BFF4F608121
:1028500071818281938120E030E040E251E40E9466
:102860001F02DC01CB01BC01CD010E944900DC014B
:10287000CB019EAF8DAF0FC08CE291E09CAF8BAFD0
:102880008BAD9CAD0197F1F79CAF8BAF8DAD9EAD3D
:1028900001979EAF8DAF8DAD9EAD009769F716C0C5
:1028A000FE01FF9660817181828193810E944900BF
:1028B000DC01CB019EAF8DAF8DAD9EAD9AAF89AFE0
:1028C00089AD9AAD0197F1F79AAF89AF81E062E0E7
:1028D00041E00E94970A80E090E0A0E8BFE38DAB62
:1028E0009EABAFABB8AF6DA97EA98FA998AD20E024
:1028F00030E84BE355E40E941F02DC01CB0189ABB9
:102900009AABABABBCAB69A97AA98BA99CA920E017
:1029100030E040E85FE30E94250488232CF481E046
:1029200090E098AB8FA73FC069A97AA98BA99CA911
:1029300020E03FEF4FE757E40E94C50318164CF51F
:102940006DA97EA98FA998AD20E030E040E251E466
:102950000E941F02DC01CB01BC01CD010E94490095
:10296000DC01CB0198AB8FA70FC08CE291E09EA752
:102970008DA78DA59EA50197F1F79EA78DA78FA581
:1029800098A9019798AB8FA78FA598A9009769F789
:1029900014C069A97AA98BA99CA90E944900DC01ED
:1029A000CB0198AB8FA78FA598A99CA78BA78BA5C8
:1029B0009CA50197F1F79CA78BA781E062E040E01E
:1029C0000E94970A80E090E0A0E8BFE38FA398A759
:1029D000A9A7BAA76FA178A589A59AA520E030E894
:1029E0004BE355E40E941F02DC01CB018BA39CA3A7
:1029F000ADA3BEA36BA17CA18DA19EA120E030E080
:102A000040E85FE30E94250488232CF481E090E0F5
:102A10009AA389A33FC06BA17CA18DA19EA120E0B8
:102A20003FEF4FE757E40E94C50318164CF56FA11E
:102A300078A589A59AA520E030E040E251E40E9403
:102A40001F02DC01CB01BC01CD010E944900DC0169
:102A5000CB019AA389A30FC08CE291E098A38F8F3A
:102A60008F8D98A10197F1F798A38F8F89A19AA1D3
:102A700001979AA389A389A19AA1009769F714C025
:102A80006BA17CA18DA19EA10E944900DC01CB011C
:102A90009AA389A389A19AA19E8F8D8F8D8D9E8DDA
:102AA0000197F1F79E8F8D8FFE01E95BFF4F8081CB
:102AB000982F917082E060E0492F0E94970AFE01F2
:102AC000E95BFF4F80818695982F917082E061E0ED
:102AD000492F0E94970AFE01E95BFF4F808186958E
:102AE0008695982F917082E062E0492F0E94970AA4
:102AF000FE01E95BFF4F8081869586958695982F2C
:102B0000917082E064E0492F0E94970A81E062E0C0
:102B100041E00E94970A80E090E0A0E8BFE3898F3F
:102B20009A8FAB8FBC8F698D7A8D8B8D9C8D20E0B9
:102B300030E84BE355E40E941F02DC01CB018D8B92
:102B40009E8BAF8BB88F6D897E898F89988D20E0A1
:102B500030E040E85FE30E94250488232CF481E004
:102B600090E09C8B8B8B3FC06D897E898F89988D7F
:102B700020E03FEF4FE757E40E94C50318164CF5DD
:102B8000698D7A8D8B8D9C8D20E030E040E251E4A0
:102B90000E941F02DC01CB01BC01CD010E94490053
:102BA000DC01CB019C8B8B8B0FC08CE291E09A8B6C
:102BB000898B89899A890197F1F79A8B898B8B89FF
:102BC0009C8901979C8B8B8B8B899C89009769F7DB
:102BD00014C06D897E898F89988D0E944900DC011F
:102BE000CB019C8B8B8B8B899C89988B8F878F8556
:102BF00098890197F1F7988B8F8781E062E040E038
:102C00000E94970A80E090E0A0E8BFE38B879C8752
:102C1000AD87BE876B857C858D859E8520E030E8FD
:102C20004BE355E40E941F02DC01CB018F839887A0
:102C3000A987BA876F81788589859A8520E030E0F9
:102C400040E85FE30E94250488232CF481E090E0B3
:102C50009E838D833FC06F81788589859A8520E02A
:102C60003FEF4FE757E40E94C50318164CF56B85FC
:102C70007C858D859E8520E030E040E251E40E9415
:102C80001F02DC01CB01BC01CD010E944900DC0127
:102C9000CB019E838D830FC08CE291E09C838B835C
:102CA0008B819C810197F1F79C838B838D819E8121
:102CB00001979E838D838D819E81009769F714C053
:102CC0006F81788589859A850E944900DC01CB0156
:102CD0009E838D838D819E819A83898389819A8148
:102CE0000197F1F79A838983C95BDF4F0FB6F89498
:102CF000DEBF0FBECDBFCF91DF911F910F91089521
:102D0000DF93CF93CDB7DEB72E970FB6F894DEBF23
:102D10000FBECDBF82E060E041E00E948D0982E0FD
:102D200061E041E00E948D0982E062E041E00E94A2
:102D30008D0982E064E041E00E948D0981E063E05A
:102D400041E00E948D0981E062E041E00E948D092E
:102D500080E090E0A0EAB1E48B879C87AD87BE87D6
:102D60006B857C858D859E8520E030E84BE355E4BE
:102D70000E941F02DC01CB018F839887A987BA8745
:102D80006F81788589859A8520E030E040E85FE3AF
:102D90000E94250488232CF481E090E09E838D839B
:102DA0003FC06F81788589859A8520E03FEF4FE7A6
:102DB00057E40E94C50318164CF56B857C858D85FC
:102DC0009E8520E030E040E251E40E941F02DC01D9
:102DD000CB01BC01CD010E944900DC01CB019E83E7
:102DE0008D830FC08CE291E09C838B838B819C81CF
:102DF0000197F1F79C838B838D819E8101979E8340
:102E00008D838D819E81009769F714C06F817885CD
:102E100089859A850E944900DC01CB019E838D83C0
:102E20008D819E819A83898389819A810197F1F7A7
:102E30009A83898383E30E94A81082E30E94A810EA
:102E400088E20E94A8108CE00E94A81081E00E94F5
:102E5000A81086E00E94A8102E960FB6F894DEBF48
:102E60000FBECDBFCF91DF910895DF93CF9300D0F8
:102E7000CDB7DEB79A8389830AC0E981FA81808160
:102E80000E94941389819A8101969A838983E981AA
:102E9000FA818081882389F70F900F90CF91DF917D
:102EA0000895EF92FF920F931F93DF93CF93CDB7C7
:102EB000DEB728970FB6F894DEBF0FBECDBF6D8387
:102EC0007E838F83988782E090E0A0E0B0E08983E2
:102ED0009A83AB83BC8336C089819A81AB81BC81E4
:102EE0002AE030E040E050E0BC01CD010E94071B29
:102EF0007B018C018D819E81AF81B8852AE030E015
:102F000040E050E0BC01CD010E94261BDC01CB015A
:102F10008E0D9F1DA01FB11F89839A83AB83BC8335
:102F20008D819E81AF81B8852AE030E040E050E09D
:102F3000BC01CD010E94261BDA01C9018D839E834D
:102F4000AF83B8878D819E81AF81B8850097A10539
:102F5000B10511F689819A81AB81BC812AE030E00C
:102F600040E050E0BC01CD010E94261BDC01CB01FA
:102F7000805D0E94941389819A81AB81BC812AE093
:102F800030E040E050E0BC01CD010E94261BDA0198
:102F9000C90189839A83AB83BC8389819A81AB8180
:102FA000BC8182309105A105B105A1F628960FB626
:102FB000F894DEBF0FBECDBFCF91DF911F910F916F
:102FC000FF90EF900895DF93CF9300D00F92CDB78D
:102FD000DEB78A836B8319828B81843110F58A81F5
:102FE0008430F8F48A81882321F48B818058898386
:102FF00014C08A81813021F48B81805489830DC073
:103000008A81823021F48B818C56898306C08A8123
:10301000833019F48B818C528983898180680E9466
:10302000A8100F900F900F90CF91DF910895DF932C
:10303000CF9300D000D0CDB7DEB79A8389836B835E
:103040004C838B816C810E94E31789819A810E9455
:1030500035170F900F900F900F90CF91DF9108953B
:10306000EF92FF920F931F93DF93CF93CDB7DEB70D
:1030700028970FB6F894DEBF0FBECDBF6D837E8359
:103080008F83988781E090E0A0E0B0E089839A8305
:10309000AB83BC838D819E81AF81B8850097A105EC
:1030A000B105D1F580E30E94941336C089819A81DD
:1030B000AB81BC812AE030E040E050E0BC01CD01B2
:1030C0000E94071B7B018C018D819E81AF81B88599
:1030D0002AE030E040E050E0BC01CD010E94261B18
:1030E000DC01CB018E0D9F1DA01FB11F89839A8328
:1030F000AB83BC838D819E81AF81B8852AE030E0AF
:1031000040E050E0BC01CD010E94261BDA01C9015C
:103110008D839E83AF83B8878D819E81AF81B88573
:103120000097A105B10511F623C089819A81AB8171
:10313000BC812AE030E040E050E0BC01CD010E94BB
:10314000261BDC01CB01805D0E94941389819A814A
:10315000AB81BC812AE030E040E050E0BC01CD0111
:103160000E94261BDA01C90189839A83AB83BC8341
:1031700089819A81AB81BC8181309105A105B1051E
:10318000A1F628960FB6F894DEBF0FBECDBFCF9143
:10319000DF911F910F91FF90EF900895DF93CF93F0
:1031A000CDB7DEB783E065E041E00E948D0983E0A2
:1031B00064E041E00E948D0983E063E041E00E9409
:1031C0008D0983E062E041E00E948D0984E067E0C0
:1031D00041E00E94970A84E066E041E00E94970A7D
:1031E00084E065E041E00E94970A84E063E041E00A
:1031F0000E94970A84E067E040E00E948D0984E025
:1032000066E040E00E948D0984E065E040E00E94B5
:103210008D0984E063E040E00E948D0984E067E06E
:1032200041E00E94970A84E066E041E00E94970A2C
:1032300084E065E041E00E94970A84E063E041E0B9
:103240000E94970ACF91DF910895DF93CF93CDB776
:10325000DEB76B970FB6F894DEBF0FBECDBF8FEF12
:103260008B8B1A8A198A188A85E08C8B84E08D8B67
:1032700083E08E8B82E08F8B87E0888F86E0898F5A
:1032800085E08A8F83E08B8F198AD3C08989282FA4
:1032900030E0CE014496FC01E20FF31F908183E001
:1032A000692F40E00E94970A1A8AABC08A89282FAA
:1032B00030E0CE014896FC01E20FF31F908184E0DC
:1032C000692F0E94990C8F878F85882309F096C0FB
:1032D00080E090E0AAE7B3E48B879C87AD87BE8748
:1032E0006B857C858D859E8520E030E84BE355E439
:1032F0000E941F02DC01CB018F839887A987BA87C0
:103300006F81788589859A8520E030E040E85FE329
:103310000E94250488232CF481E090E09E838D8315
:103320003FC06F81788589859A8520E03FEF4FE720
:1033300057E40E94C50318164CF56B857C858D8576
:103340009E8520E030E040E251E40E941F02DC0153
:10335000CB01BC01CD010E944900DC01CB019E8361
:103360008D830FC08CE291E09C838B838B819C8149
:103370000197F1F79C838B838D819E8101979E83BA
:103380008D838D819E81009769F714C06F81788548
:1033900089859A850E944900DC01CB019E838D833B
:1033A0008D819E819A83898389819A810197F1F722
:1033B0009A8389838A89282F30E0CE014896FC01C0
:1033C000E20FF31F908184E0692F0E94990C8823FB
:1033D00089F381E0888B8989482F50E08A89282FDA
:1033E00030E0CA01880F991F880F991F820F931F21
:1033F000FC01ED58FE4F80818B8B07C08A898F5F5F
:103400008A8B8A89843008F451CF8989282F30E04B
:10341000CE014496FC01E20FF31F908183E0692FF7
:1034200041E00E94970A8889813039F089898F5F4D
:10343000898B8989843008F429CF8B896B960FB6E4
:10344000F894DEBF0FBECDBFCF91DF910895DF931B
:10345000CF93CDB7DEB781E080938E01CF91DF911E
:103460000895DF93CF93CDB7DEB764970FB6F89486
:10347000DEBF0FBECDBF0E948016CE01439627E26D
:103480003AE1B9010E94490E80E00E94430D0E947A
:10349000210D0E9417070E94A90D80918E01813095
:1034A000D1F710928E0180E060E00E94E31780E681
:1034B00090E00E9435178B899C89CC01A0E0B0E098
:1034C000BC01CD010E94A904DC01CB01BC01CD01EE
:1034D00026EF38E24CE950E40E941F02DC01CB01E8
:1034E0008F87988BA98BBA8B6F85788989899A8900
:1034F00020E030E040E251E40E941903DC01CB01FE
:103500008F87988BA98BBA8B6F85788989899A89DF
:103510000E944900DC01CB01BC01CD010E943018A2
:1035200088E690E00E94351780E090E0AAE7B4E4D6
:103530008B879C87AD87BE876B857C858D859E85B7
:1035400020E030E04AEF54E40E941F02DC01CB018E
:103550008F839887A987BA876F81788589859A85AF
:1035600020E030E040E85FE30E94250488232CF44B
:1035700081E090E09E838D833FC06F81788589854F
:103580009A8520E03FEF4FE757E40E94C5031816E5
:103590004CF56B857C858D859E8520E030E040E292
:1035A00051E40E941F02DC01CB01BC01CD010E944D
:1035B0004900DC01CB019E838D830FC088EC90E035
:1035C0009C838B838B819C810197F1F79C838B83F8
:1035D0008D819E8101979E838D838D819E81009731
:1035E00069F759CF6F81788589859A850E9449004E
:1035F000DC01CB019E838D838D819E819A8389839B
:1036000089819A810197F1F79A83898344CF629FD8
:10361000D001739FF001829FE00DF11D649FE00DCA
:10362000F11D929FF00D839FF00D749FF00D659F2B
:10363000F00D9927729FB00DE11DF91F639FB00D2A
:10364000E11DF91FBD01CF0111240895A1E21A2E39
:10365000AA1BBB1BFD010DC0AA1FBB1FEE1FFF1F36
:10366000A217B307E407F50720F0A21BB30BE40B86
:10367000F50B661F771F881F991F1A9469F76095CD
:103680007095809590959B01AC01BD01CF01089587
:103690002F923F924F925F926F927F928F929F9262
:1036A000AF92BF92CF92DF92EF92FF920F931F9350
:1036B000CF93DF93CDB7DEB7CA1BDB0B0FB6F89401
:1036C000DEBF0FBECDBF09942A88398848885F8441
:1036D0006E847D848C849B84AA84B984C884DF80B2
:1036E000EE80FD800C811B81AA81B981CE0FD11D96
:1036F0000FB6F894DEBF0FBECDBFED010895F8946C
:02370000FFCFF9
:1037020054656D70203D2000204300000000000041
:103712000000000001020203030303040404040482
:10372200040404050505050505050505050505054A
:10373200050505060606060606060606060606062A
:103742000606060606060606060606060606060617
:1037520006060607070707070707070707070707FA
:1037620007070707070707070707070707070707E7
:1037720007070707070707070707070707070707D7
:1037820007070707070707070707070707070707C7
:1037920007070708080808080808080808080808AA
:1037A2000808080808080808080808080808080897
:1037B2000808080808080808080808080808080887
:1037C2000808080808080808080808080808080877
:1037D2000808080808080808080808080808080867
:1037E2000808080808080808080808080808080857
:1037F2000808080808080808080808080808080847
:103802000808080808080808080808080808080836
:103812000808083132332B3435362D3738392A43EC
:04382200303D2F0006
:00000001FF
